{
  "contractName": "RegisterPatient",
  "abi": [
    {
      "constant": true,
      "inputs": [
        {
          "name": "",
          "type": "uint256"
        }
      ],
      "name": "patientAccts",
      "outputs": [
        {
          "name": "PatientName",
          "type": "string"
        },
        {
          "name": "Patient_ID",
          "type": "string"
        },
        {
          "name": "PatientForm_ID",
          "type": "string"
        },
        {
          "name": "SSN",
          "type": "string"
        },
        {
          "name": "DateOfBirth",
          "type": "string"
        },
        {
          "name": "EmailAddress",
          "type": "string"
        }
      ],
      "payable": false,
      "stateMutability": "view",
      "type": "function"
    },
    {
      "constant": false,
      "inputs": [
        {
          "name": "patient_name",
          "type": "string"
        },
        {
          "name": "patient_id",
          "type": "string"
        },
        {
          "name": "patient_formId",
          "type": "string"
        },
        {
          "name": "ssn",
          "type": "string"
        },
        {
          "name": "dob",
          "type": "string"
        },
        {
          "name": "email",
          "type": "string"
        }
      ],
      "name": "setPatient",
      "outputs": [],
      "payable": false,
      "stateMutability": "nonpayable",
      "type": "function"
    }
  ],
  "bytecode": "0x608060405234801561001057600080fd5b50610a9a806100206000396000f30060806040526004361061004c576000357c0100000000000000000000000000000000000000000000000000000000900463ffffffff16806333a44e37146100515780635ac6240814610313575b600080fd5b34801561005d57600080fd5b5061007c600480360381019080803590602001909291905050506104da565b6040518080602001806020018060200180602001806020018060200187810387528d818151815260200191508051906020019080838360005b838110156100d05780820151818401526020810190506100b5565b50505050905090810190601f1680156100fd5780820380516001836020036101000a031916815260200191505b5087810386528c818151815260200191508051906020019080838360005b8381101561013657808201518184015260208101905061011b565b50505050905090810190601f1680156101635780820380516001836020036101000a031916815260200191505b5087810385528b818151815260200191508051906020019080838360005b8381101561019c578082015181840152602081019050610181565b50505050905090810190601f1680156101c95780820380516001836020036101000a031916815260200191505b5087810384528a818151815260200191508051906020019080838360005b838110156102025780820151818401526020810190506101e7565b50505050905090810190601f16801561022f5780820380516001836020036101000a031916815260200191505b50878103835289818151815260200191508051906020019080838360005b8381101561026857808201518184015260208101905061024d565b50505050905090810190601f1680156102955780820380516001836020036101000a031916815260200191505b50878103825288818151815260200191508051906020019080838360005b838110156102ce5780820151818401526020810190506102b3565b50505050905090810190601f1680156102fb5780820380516001836020036101000a031916815260200191505b509c5050505050505050505050505060405180910390f35b34801561031f57600080fd5b506104d8600480360381019080803590602001908201803590602001908080601f0160208091040260200160405190810160405280939291908181526020018383808284378201915050505050509192919290803590602001908201803590602001908080601f0160208091040260200160405190810160405280939291908181526020018383808284378201915050505050509192919290803590602001908201803590602001908080601f0160208091040260200160405190810160405280939291908181526020018383808284378201915050505050509192919290803590602001908201803590602001908080601f0160208091040260200160405190810160405280939291908181526020018383808284378201915050505050509192919290803590602001908201803590602001908080601f0160208091040260200160405190810160405280939291908181526020018383808284378201915050505050509192919290803590602001908201803590602001908080601f01602080910402602001604051908101604052809392919081815260200183838082843782019150505050505091929192905050506108b5565b005b6000818154811015156104e957fe5b9060005260206000209060060201600091509050806000018054600181600116156101000203166002900480601f0160208091040260200160405190810160405280929190818152602001828054600181600116156101000203166002900480156105955780601f1061056a57610100808354040283529160200191610595565b820191906000526020600020905b81548152906001019060200180831161057857829003601f168201915b505050505090806001018054600181600116156101000203166002900480601f0160208091040260200160405190810160405280929190818152602001828054600181600116156101000203166002900480156106335780601f1061060857610100808354040283529160200191610633565b820191906000526020600020905b81548152906001019060200180831161061657829003601f168201915b505050505090806002018054600181600116156101000203166002900480601f0160208091040260200160405190810160405280929190818152602001828054600181600116156101000203166002900480156106d15780601f106106a6576101008083540402835291602001916106d1565b820191906000526020600020905b8154815290600101906020018083116106b457829003601f168201915b505050505090806003018054600181600116156101000203166002900480601f01602080910402602001604051908101604052809291908181526020018280546001816001161561010002031660029004801561076f5780601f106107445761010080835404028352916020019161076f565b820191906000526020600020905b81548152906001019060200180831161075257829003601f168201915b505050505090806004018054600181600116156101000203166002900480601f01602080910402602001604051908101604052809291908181526020018280546001816001161561010002031660029004801561080d5780601f106107e25761010080835404028352916020019161080d565b820191906000526020600020905b8154815290600101906020018083116107f057829003601f168201915b505050505090806005018054600181600116156101000203166002900480601f0160208091040260200160405190810160405280929190818152602001828054600181600116156101000203166002900480156108ab5780601f10610880576101008083540402835291602001916108ab565b820191906000526020600020905b81548152906001019060200180831161088e57829003601f168201915b5050505050905086565b600060c0604051908101604052808881526020018781526020018681526020018581526020018481526020018381525090806001815401808255809150509060018203906000526020600020906006020160009091929091909150600082015181600001908051906020019061092c9291906109c9565b5060208201518160010190805190602001906109499291906109c9565b5060408201518160020190805190602001906109669291906109c9565b5060608201518160030190805190602001906109839291906109c9565b5060808201518160040190805190602001906109a09291906109c9565b5060a08201518160050190805190602001906109bd9291906109c9565b50505050505050505050565b828054600181600116156101000203166002900490600052602060002090601f016020900481019282601f10610a0a57805160ff1916838001178555610a38565b82800160010185558215610a38579182015b82811115610a37578251825591602001919060010190610a1c565b5b509050610a459190610a49565b5090565b610a6b91905b80821115610a67576000816000905550600101610a4f565b5090565b905600a165627a7a723058200c4d4d7e97c9f876c6b34b4c0217100c83bbb9043eddbc711823ba2ae513a1f60029",
  "source": "pragma solidity ^0.4.22;\n\n\ncontract RegisterPatient {\n  struct Patient { \n        string PatientName;\n        string Patient_ID;\n        string PatientForm_ID;\n        string SSN;\n        string DateOfBirth;\n        string EmailAddress;\n    }\n\n  //mapping (address => Patient) public patients; \n   Patient[] public patientAccts;\n\n  //setter to set patient\n  function setPatient(string patient_name,string patient_id,\n    string patient_formId, string ssn, string dob, string email){\n    patientAccts.push(Patient(patient_name,patient_id,patient_formId,ssn,dob,email));\n    \n  }\n\n  // getter to get patients\n  // function getPatients() view public returns(Patient[]){\n  //   return patientAccts;\n  // }\n\n}\n",
  "sourcePath": "/Users/Bhim/Documents/workspace/sdlc/blockchain/SDLC_BLOCKCHAIN_GIT/SDLC_Blockchain_Demo/project_code_base/contracts/RegisterPatient.sol",
  "compiler": {
    "name": "solc",
    "version": "0.4.25+commit.59dbf8f1.Emscripten.clang"
  },
  "schemaVersion": "2.0.2",
  "updatedAt": "2019-01-21T15:32:45.159Z"
}